{
  "abi": [
    {
      "inputs": [
        {
          "internalType": "address",
          "name": "priceFeed",
          "type": "address"
        }
      ],
      "stateMutability": "nonpayable",
      "type": "constructor"
    },
    {
      "inputs": [],
      "name": "FundMe__NotOwner",
      "type": "error"
    },
    {
      "stateMutability": "payable",
      "type": "fallback"
    },
    {
      "inputs": [],
      "name": "MINIMUM_USD",
      "outputs": [
        {
          "internalType": "uint256",
          "name": "",
          "type": "uint256"
        }
      ],
      "stateMutability": "view",
      "type": "function"
    },
    {
      "inputs": [],
      "name": "fund",
      "outputs": [],
      "stateMutability": "payable",
      "type": "function"
    },
    {
      "inputs": [
        {
          "internalType": "address",
          "name": "fundingAddress",
          "type": "address"
        }
      ],
      "name": "getAddressToAmountFunded",
      "outputs": [
        {
          "internalType": "uint256",
          "name": "",
          "type": "uint256"
        }
      ],
      "stateMutability": "view",
      "type": "function"
    },
    {
      "inputs": [
        {
          "internalType": "uint256",
          "name": "index",
          "type": "uint256"
        }
      ],
      "name": "getFunder",
      "outputs": [
        {
          "internalType": "address",
          "name": "",
          "type": "address"
        }
      ],
      "stateMutability": "view",
      "type": "function"
    },
    {
      "inputs": [],
      "name": "getOwner",
      "outputs": [
        {
          "internalType": "address",
          "name": "",
          "type": "address"
        }
      ],
      "stateMutability": "view",
      "type": "function"
    },
    {
      "inputs": [],
      "name": "getVersion",
      "outputs": [
        {
          "internalType": "uint256",
          "name": "",
          "type": "uint256"
        }
      ],
      "stateMutability": "view",
      "type": "function"
    },
    {
      "inputs": [],
      "name": "s_priceFeed",
      "outputs": [
        {
          "internalType": "contract AggregatorV3Interface",
          "name": "",
          "type": "address"
        }
      ],
      "stateMutability": "view",
      "type": "function"
    },
    {
      "inputs": [],
      "name": "withdraw",
      "outputs": [],
      "stateMutability": "nonpayable",
      "type": "function"
    },
    {
      "stateMutability": "payable",
      "type": "receive"
    }
  ],
  "bytecode": {
    "object": "0x608060405234801561001057600080fd5b506040516107d93803806107d983398101604081905261002f91610062565b60028054336001600160a01b031991821617909155600380549091166001600160a01b0392909216919091179055610092565b60006020828403121561007457600080fd5b81516001600160a01b038116811461008b57600080fd5b9392505050565b610738806100a16000396000f3fe60806040526004361061007f5760003560e01c80636b69a5921161004e5780636b69a59214610141578063893d20e81461015d578063b60d42881461008e578063d7b4750c1461017b5761008e565b80630343fb25146100965780630d8e6e2c146100df5780630ec3b027146100f45780633ccfd60b1461012c5761008e565b3661008e5761008c61019b565b005b61008c61019b565b3480156100a257600080fd5b506100cc6100b1366004610577565b6001600160a01b031660009081526020819052604090205490565b6040519081526020015b60405180910390f35b3480156100eb57600080fd5b506100cc610276565b34801561010057600080fd5b50600354610114906001600160a01b031681565b6040516001600160a01b0390911681526020016100d6565b34801561013857600080fd5b5061008c6102e9565b34801561014d57600080fd5b506100cc674563918244f4000081565b34801561016957600080fd5b506002546001600160a01b0316610114565b34801561018757600080fd5b506101146101963660046105a0565b610412565b600354674563918244f40000906101bc9034906001600160a01b0316610442565b101561020f5760405162461bcd60e51b815260206004820152601b60248201527f596f75206e65656420746f207370656e64206d6f72652045544821000000000060448201526064015b60405180910390fd5b336000908152602081905260408120805434929061022e9084906105cf565b90915550506001805480820182556000919091527fb10e2d527612073b26eecdfd717e6a320cf44b4afac2b0732d9fcbe2b7fa0cf60180546001600160a01b03191633179055565b6003546040805163054fd4d560e41b815290516000926001600160a01b0316916354fd4d509160048083019260209291908290030181865afa1580156102c0573d6000803e3d6000fd5b505050506040513d601f19601f820116820180604052508101906102e491906105e2565b905090565b6002546001600160a01b031633146103145760405163579610db60e01b815260040160405180910390fd5b60005b60015481101561036a57600060018281548110610336576103366105fb565b60009182526020808320909101546001600160a01b031682528190526040812055508061036281610611565b915050610317565b506040805160008152602081019182905251610388916001916104fd565b50604051600090339047908381818185875af1925050503d80600081146103cb576040519150601f19603f3d011682016040523d82523d6000602084013e6103d0565b606091505b505090508061040f5760405162461bcd60e51b815260206004820152600b60248201526a10d85b1b0819985a5b195960aa1b6044820152606401610206565b50565b600060018281548110610427576104276105fb565b6000918252602090912001546001600160a01b031692915050565b60008061044e8361047a565b90506000670de0b6b3a7640000610465868461062a565b61046f9190610641565b925050505b92915050565b600080826001600160a01b031663feaf968c6040518163ffffffff1660e01b815260040160a060405180830381865afa1580156104bb573d6000803e3d6000fd5b505050506040513d601f19601f820116820180604052508101906104df9190610682565b505050915050806402540be4006104f691906106d2565b9392505050565b828054828255906000526020600020908101928215610552579160200282015b8281111561055257825182546001600160a01b0319166001600160a01b0390911617825560209092019160019091019061051d565b5061055e929150610562565b5090565b5b8082111561055e5760008155600101610563565b60006020828403121561058957600080fd5b81356001600160a01b03811681146104f657600080fd5b6000602082840312156105b257600080fd5b5035919050565b634e487b7160e01b600052601160045260246000fd5b80820180821115610474576104746105b9565b6000602082840312156105f457600080fd5b5051919050565b634e487b7160e01b600052603260045260246000fd5b600060018201610623576106236105b9565b5060010190565b8082028115828204841417610474576104746105b9565b60008261065e57634e487b7160e01b600052601260045260246000fd5b500490565b805169ffffffffffffffffffff8116811461067d57600080fd5b919050565b600080600080600060a0868803121561069a57600080fd5b6106a386610663565b94506020860151935060408601519250606086015191506106c660808701610663565b90509295509295909350565b80820260008212600160ff1b841416156106ee576106ee6105b9565b8181058314821517610474576104746105b956fea26469706673582212204e854c642001965058cce6f1826a1abd70ad087ba491c8a5f1822538e2a6406964736f6c63430008150033",
    "linkReferences": {}
  },
  "methodIdentifiers": {
    "MINIMUM_USD()": "6b69a592",
    "fund()": "b60d4288",
    "getAddressToAmountFunded(address)": "0343fb25",
    "getFunder(uint256)": "d7b4750c",
    "getOwner()": "893d20e8",
    "getVersion()": "0d8e6e2c",
    "s_priceFeed()": "0ec3b027",
    "withdraw()": "3ccfd60b"
  },
  "id": 22
}