{
  "abi": [
    {
      "inputs": [
        {
          "internalType": "address",
          "name": "priceFeed",
          "type": "address"
        }
      ],
      "stateMutability": "nonpayable",
      "type": "constructor"
    },
    {
      "inputs": [],
      "name": "FundMe__NotOwner",
      "type": "error"
    },
    {
      "stateMutability": "payable",
      "type": "fallback"
    },
    {
      "inputs": [],
      "name": "MINIMUM_USD",
      "outputs": [
        {
          "internalType": "uint256",
          "name": "",
          "type": "uint256"
        }
      ],
      "stateMutability": "view",
      "type": "function"
    },
    {
      "inputs": [],
      "name": "fund",
      "outputs": [],
      "stateMutability": "payable",
      "type": "function"
    },
    {
      "inputs": [
        {
          "internalType": "address",
          "name": "fundingAddress",
          "type": "address"
        }
      ],
      "name": "getAddressToAmountFunded",
      "outputs": [
        {
          "internalType": "uint256",
          "name": "",
          "type": "uint256"
        }
      ],
      "stateMutability": "view",
      "type": "function"
    },
    {
      "inputs": [
        {
          "internalType": "uint256",
          "name": "index",
          "type": "uint256"
        }
      ],
      "name": "getFunder",
      "outputs": [
        {
          "internalType": "address",
          "name": "",
          "type": "address"
        }
      ],
      "stateMutability": "view",
      "type": "function"
    },
    {
      "inputs": [],
      "name": "getVersion",
      "outputs": [
        {
          "internalType": "uint256",
          "name": "",
          "type": "uint256"
        }
      ],
      "stateMutability": "view",
      "type": "function"
    },
    {
      "inputs": [],
      "name": "i_owner",
      "outputs": [
        {
          "internalType": "address",
          "name": "",
          "type": "address"
        }
      ],
      "stateMutability": "view",
      "type": "function"
    },
    {
      "inputs": [],
      "name": "s_priceFeed",
      "outputs": [
        {
          "internalType": "contract AggregatorV3Interface",
          "name": "",
          "type": "address"
        }
      ],
      "stateMutability": "view",
      "type": "function"
    },
    {
      "inputs": [],
      "name": "withdraw",
      "outputs": [],
      "stateMutability": "nonpayable",
      "type": "function"
    },
    {
      "stateMutability": "payable",
      "type": "receive"
    }
  ],
  "bytecode": {
    "object": "0x608060405234801561001057600080fd5b506040516107db3803806107db83398101604081905261002f91610062565b60028054336001600160a01b031991821617909155600380549091166001600160a01b0392909216919091179055610092565b60006020828403121561007457600080fd5b81516001600160a01b038116811461008b57600080fd5b9392505050565b61073a806100a16000396000f3fe60806040526004361061007f5760003560e01c80636b69a5921161004e5780636b69a59214610141578063b60d42881461008e578063d7b4750c1461015d578063dba6335f1461017d5761008e565b80630343fb25146100965780630d8e6e2c146100df5780630ec3b027146100f45780633ccfd60b1461012c5761008e565b3661008e5761008c61019d565b005b61008c61019d565b3480156100a257600080fd5b506100cc6100b1366004610579565b6001600160a01b031660009081526020819052604090205490565b6040519081526020015b60405180910390f35b3480156100eb57600080fd5b506100cc610278565b34801561010057600080fd5b50600354610114906001600160a01b031681565b6040516001600160a01b0390911681526020016100d6565b34801561013857600080fd5b5061008c6102eb565b34801561014d57600080fd5b506100cc674563918244f4000081565b34801561016957600080fd5b506101146101783660046105a2565b610414565b34801561018957600080fd5b50600254610114906001600160a01b031681565b600354674563918244f40000906101be9034906001600160a01b0316610444565b10156102115760405162461bcd60e51b815260206004820152601b60248201527f596f75206e65656420746f207370656e64206d6f72652045544821000000000060448201526064015b60405180910390fd5b33600090815260208190526040812080543492906102309084906105d1565b90915550506001805480820182556000919091527fb10e2d527612073b26eecdfd717e6a320cf44b4afac2b0732d9fcbe2b7fa0cf60180546001600160a01b03191633179055565b6003546040805163054fd4d560e41b815290516000926001600160a01b0316916354fd4d509160048083019260209291908290030181865afa1580156102c2573d6000803e3d6000fd5b505050506040513d601f19601f820116820180604052508101906102e691906105e4565b905090565b6002546001600160a01b031633146103165760405163579610db60e01b815260040160405180910390fd5b60005b60015481101561036c57600060018281548110610338576103386105fd565b60009182526020808320909101546001600160a01b031682528190526040812055508061036481610613565b915050610319565b50604080516000815260208101918290525161038a916001916104ff565b50604051600090339047908381818185875af1925050503d80600081146103cd576040519150601f19603f3d011682016040523d82523d6000602084013e6103d2565b606091505b50509050806104115760405162461bcd60e51b815260206004820152600b60248201526a10d85b1b0819985a5b195960aa1b6044820152606401610208565b50565b600060018281548110610429576104296105fd565b6000918252602090912001546001600160a01b031692915050565b6000806104508361047c565b90506000670de0b6b3a7640000610467868461062c565b6104719190610643565b925050505b92915050565b600080826001600160a01b031663feaf968c6040518163ffffffff1660e01b815260040160a060405180830381865afa1580156104bd573d6000803e3d6000fd5b505050506040513d601f19601f820116820180604052508101906104e19190610684565b505050915050806402540be4006104f891906106d4565b9392505050565b828054828255906000526020600020908101928215610554579160200282015b8281111561055457825182546001600160a01b0319166001600160a01b0390911617825560209092019160019091019061051f565b50610560929150610564565b5090565b5b808211156105605760008155600101610565565b60006020828403121561058b57600080fd5b81356001600160a01b03811681146104f857600080fd5b6000602082840312156105b457600080fd5b5035919050565b634e487b7160e01b600052601160045260246000fd5b80820180821115610476576104766105bb565b6000602082840312156105f657600080fd5b5051919050565b634e487b7160e01b600052603260045260246000fd5b600060018201610625576106256105bb565b5060010190565b8082028115828204841417610476576104766105bb565b60008261066057634e487b7160e01b600052601260045260246000fd5b500490565b805169ffffffffffffffffffff8116811461067f57600080fd5b919050565b600080600080600060a0868803121561069c57600080fd5b6106a586610665565b94506020860151935060408601519250606086015191506106c860808701610665565b90509295509295909350565b80820260008212600160ff1b841416156106f0576106f06105bb565b8181058314821517610476576104766105bb56fea2646970667358221220528ff60a2c4d5dc594078ae38857274b74b91aaf400e82cafcb689faa031d96464736f6c63430008150033",
    "linkReferences": {}
  },
  "methodIdentifiers": {
    "MINIMUM_USD()": "6b69a592",
    "fund()": "b60d4288",
    "getAddressToAmountFunded(address)": "0343fb25",
    "getFunder(uint256)": "d7b4750c",
    "getVersion()": "0d8e6e2c",
    "i_owner()": "dba6335f",
    "s_priceFeed()": "0ec3b027",
    "withdraw()": "3ccfd60b"
  },
  "id": 22
}