{
  "abi": [
    {
      "inputs": [
        {
          "internalType": "address",
          "name": "priceFeed",
          "type": "address"
        }
      ],
      "stateMutability": "nonpayable",
      "type": "constructor"
    },
    {
      "inputs": [],
      "name": "FundMe__NotOwner",
      "type": "error"
    },
    {
      "stateMutability": "payable",
      "type": "fallback"
    },
    {
      "inputs": [],
      "name": "MINIMUM_USD",
      "outputs": [
        {
          "internalType": "uint256",
          "name": "",
          "type": "uint256"
        }
      ],
      "stateMutability": "view",
      "type": "function"
    },
    {
      "inputs": [],
      "name": "cheaperWithdraw",
      "outputs": [],
      "stateMutability": "nonpayable",
      "type": "function"
    },
    {
      "inputs": [],
      "name": "fund",
      "outputs": [],
      "stateMutability": "payable",
      "type": "function"
    },
    {
      "inputs": [
        {
          "internalType": "address",
          "name": "fundingAddress",
          "type": "address"
        }
      ],
      "name": "getAddressToAmountFunded",
      "outputs": [
        {
          "internalType": "uint256",
          "name": "",
          "type": "uint256"
        }
      ],
      "stateMutability": "view",
      "type": "function"
    },
    {
      "inputs": [
        {
          "internalType": "uint256",
          "name": "index",
          "type": "uint256"
        }
      ],
      "name": "getFunder",
      "outputs": [
        {
          "internalType": "address",
          "name": "",
          "type": "address"
        }
      ],
      "stateMutability": "view",
      "type": "function"
    },
    {
      "inputs": [],
      "name": "getOwner",
      "outputs": [
        {
          "internalType": "address",
          "name": "",
          "type": "address"
        }
      ],
      "stateMutability": "view",
      "type": "function"
    },
    {
      "inputs": [],
      "name": "getVersion",
      "outputs": [
        {
          "internalType": "uint256",
          "name": "",
          "type": "uint256"
        }
      ],
      "stateMutability": "view",
      "type": "function"
    },
    {
      "inputs": [],
      "name": "s_priceFeed",
      "outputs": [
        {
          "internalType": "contract AggregatorV3Interface",
          "name": "",
          "type": "address"
        }
      ],
      "stateMutability": "view",
      "type": "function"
    },
    {
      "inputs": [],
      "name": "withdraw",
      "outputs": [],
      "stateMutability": "nonpayable",
      "type": "function"
    },
    {
      "stateMutability": "payable",
      "type": "receive"
    }
  ],
  "bytecode": {
    "object": "0x60a060405234801561001057600080fd5b5060405161098538038061098583398101604081905261002f91610058565b33608052600280546001600160a01b0319166001600160a01b0392909216919091179055610088565b60006020828403121561006a57600080fd5b81516001600160a01b038116811461008157600080fd5b9392505050565b6080516108d46100b16000396000818161017701528181610329015261047001526108d46000f3fe60806040526004361061008a5760003560e01c80636b69a592116100595780636b69a5921461014c578063893d20e814610168578063b60d428814610099578063be2693f01461019b578063d7b4750c146101b057610099565b80630343fb25146100a15780630d8e6e2c146100ea5780630ec3b027146100ff5780633ccfd60b1461013757610099565b36610099576100976101d0565b005b6100976101d0565b3480156100ad57600080fd5b506100d76100bc366004610713565b6001600160a01b031660009081526020819052604090205490565b6040519081526020015b60405180910390f35b3480156100f657600080fd5b506100d76102ab565b34801561010b57600080fd5b5060025461011f906001600160a01b031681565b6040516001600160a01b0390911681526020016100e1565b34801561014357600080fd5b5061009761031e565b34801561015857600080fd5b506100d7674563918244f4000081565b34801561017457600080fd5b507f000000000000000000000000000000000000000000000000000000000000000061011f565b3480156101a757600080fd5b50610097610465565b3480156101bc57600080fd5b5061011f6101cb36600461073c565b6105ae565b600254674563918244f40000906101f19034906001600160a01b03166105de565b10156102445760405162461bcd60e51b815260206004820152601b60248201527f596f75206e65656420746f207370656e64206d6f72652045544821000000000060448201526064015b60405180910390fd5b336000908152602081905260408120805434929061026390849061076b565b90915550506001805480820182556000919091527fb10e2d527612073b26eecdfd717e6a320cf44b4afac2b0732d9fcbe2b7fa0cf60180546001600160a01b03191633179055565b6002546040805163054fd4d560e41b815290516000926001600160a01b0316916354fd4d509160048083019260209291908290030181865afa1580156102f5573d6000803e3d6000fd5b505050506040513d601f19601f82011682018060405250810190610319919061077e565b905090565b336001600160a01b037f000000000000000000000000000000000000000000000000000000000000000016146103675760405163579610db60e01b815260040160405180910390fd5b60005b6001548110156103bd5760006001828154811061038957610389610797565b60009182526020808320909101546001600160a01b03168252819052604081205550806103b5816107ad565b91505061036a565b5060408051600081526020810191829052516103db91600191610699565b50604051600090339047908381818185875af1925050503d806000811461041e576040519150601f19603f3d011682016040523d82523d6000602084013e610423565b606091505b50509050806104625760405162461bcd60e51b815260206004820152600b60248201526a10d85b1b0819985a5b195960aa1b604482015260640161023b565b50565b336001600160a01b037f000000000000000000000000000000000000000000000000000000000000000016146104ae5760405163579610db60e01b815260040160405180910390fd5b60015460005b81811115610505576000600182815481106104d1576104d1610797565b60009182526020808320909101546001600160a01b03168252819052604081205550806104fd816107ad565b9150506104b4565b50604080516000815260208101918290525161052391600191610699565b50604051600090339047908381818185875af1925050503d8060008114610566576040519150601f19603f3d011682016040523d82523d6000602084013e61056b565b606091505b50509050806105aa5760405162461bcd60e51b815260206004820152600b60248201526a10d85b1b0819985a5b195960aa1b604482015260640161023b565b5050565b6000600182815481106105c3576105c3610797565b6000918252602090912001546001600160a01b031692915050565b6000806105ea83610616565b90506000670de0b6b3a764000061060186846107c6565b61060b91906107dd565b925050505b92915050565b600080826001600160a01b031663feaf968c6040518163ffffffff1660e01b815260040160a060405180830381865afa158015610657573d6000803e3d6000fd5b505050506040513d601f19601f8201168201806040525081019061067b919061081e565b505050915050806402540be400610692919061086e565b9392505050565b8280548282559060005260206000209081019282156106ee579160200282015b828111156106ee57825182546001600160a01b0319166001600160a01b039091161782556020909201916001909101906106b9565b506106fa9291506106fe565b5090565b5b808211156106fa57600081556001016106ff565b60006020828403121561072557600080fd5b81356001600160a01b038116811461069257600080fd5b60006020828403121561074e57600080fd5b5035919050565b634e487b7160e01b600052601160045260246000fd5b8082018082111561061057610610610755565b60006020828403121561079057600080fd5b5051919050565b634e487b7160e01b600052603260045260246000fd5b6000600182016107bf576107bf610755565b5060010190565b808202811582820484141761061057610610610755565b6000826107fa57634e487b7160e01b600052601260045260246000fd5b500490565b805169ffffffffffffffffffff8116811461081957600080fd5b919050565b600080600080600060a0868803121561083657600080fd5b61083f866107ff565b9450602086015193506040860151925060608601519150610862608087016107ff565b90509295509295909350565b80820260008212600160ff1b8414161561088a5761088a610755565b81810583148215176106105761061061075556fea2646970667358221220585ba5d68499ed09a7992d886023462efd5526cbf1d4e3b828ea500c4511c0d464736f6c63430008150033",
    "linkReferences": {}
  },
  "methodIdentifiers": {
    "MINIMUM_USD()": "6b69a592",
    "cheaperWithdraw()": "be2693f0",
    "fund()": "b60d4288",
    "getAddressToAmountFunded(address)": "0343fb25",
    "getFunder(uint256)": "d7b4750c",
    "getOwner()": "893d20e8",
    "getVersion()": "0d8e6e2c",
    "s_priceFeed()": "0ec3b027",
    "withdraw()": "3ccfd60b"
  },
  "id": 24
}